{
  "contractName": "ItemManager",
  "abi": [
    {
      "anonymous": false,
      "inputs": [
        {
          "indexed": false,
          "internalType": "uint256",
          "name": "_itemIndex",
          "type": "uint256"
        },
        {
          "indexed": false,
          "internalType": "uint256",
          "name": "_step",
          "type": "uint256"
        },
        {
          "indexed": false,
          "internalType": "address",
          "name": "_address",
          "type": "address"
        }
      ],
      "name": "SupplyChainStep",
      "type": "event"
    },
    {
      "anonymous": false,
      "inputs": [
        {
          "indexed": true,
          "internalType": "address",
          "name": "oldOwner",
          "type": "address"
        },
        {
          "indexed": true,
          "internalType": "address",
          "name": "newOwner",
          "type": "address"
        }
      ],
      "name": "transferDetails",
      "type": "event"
    },
    {
      "inputs": [],
      "name": "isowner",
      "outputs": [
        {
          "internalType": "address",
          "name": "",
          "type": "address"
        }
      ],
      "stateMutability": "view",
      "type": "function",
      "constant": true
    },
    {
      "inputs": [
        {
          "internalType": "uint256",
          "name": "",
          "type": "uint256"
        }
      ],
      "name": "items",
      "outputs": [
        {
          "internalType": "contract Item",
          "name": "_item",
          "type": "address"
        },
        {
          "internalType": "enum ItemManager.SupplyChainSteps",
          "name": "_step",
          "type": "uint8"
        },
        {
          "internalType": "string",
          "name": "_identifier",
          "type": "string"
        }
      ],
      "stateMutability": "view",
      "type": "function",
      "constant": true
    },
    {
      "inputs": [
        {
          "internalType": "address",
          "name": "newOwner",
          "type": "address"
        }
      ],
      "name": "transferOwnership",
      "outputs": [],
      "stateMutability": "nonpayable",
      "type": "function"
    },
    {
      "inputs": [
        {
          "internalType": "string",
          "name": "_identifier",
          "type": "string"
        },
        {
          "internalType": "uint256",
          "name": "_priceInWei",
          "type": "uint256"
        }
      ],
      "name": "CreateItem",
      "outputs": [],
      "stateMutability": "nonpayable",
      "type": "function"
    },
    {
      "inputs": [
        {
          "internalType": "uint256",
          "name": "_index",
          "type": "uint256"
        }
      ],
      "name": "triggerPayment",
      "outputs": [],
      "stateMutability": "payable",
      "type": "function",
      "payable": true
    },
    {
      "inputs": [
        {
          "internalType": "uint256",
          "name": "_index",
          "type": "uint256"
        }
      ],
      "name": "triggerDelivery",
      "outputs": [],
      "stateMutability": "nonpayable",
      "type": "function"
    }
  ],
  "bytecode": "0x608060405234801561001057600080fd5b50336000806101000a81548173ffffffffffffffffffffffffffffffffffffffff021916908373ffffffffffffffffffffffffffffffffffffffff160217905550611f6e806100606000396000f3fe6080604052600436106200005c5760003560e01c8063800fb83f1462000061578063bfb231d21462000081578063cd31831e14620000c7578063ead4d3db14620000f5578063f2fde38b1462000125578063f984ba691462000153575b600080fd5b6200007f600480360381019062000079919062000ed3565b62000181565b005b3480156200008e57600080fd5b50620000ad6004803603810190620000a7919062000ed3565b620004d1565b604051620000be9392919062001105565b60405180910390f35b348015620000d457600080fd5b50620000f36004803603810190620000ed919062000ed3565b620005b8565b005b3480156200010257600080fd5b506200010d6200085b565b6040516200011c9190620010ab565b60405180910390f35b3480156200013257600080fd5b506200015160048036038101906200014b919062000e4d565b62000884565b005b3480156200016057600080fd5b506200017f600480360381019062000179919062000e79565b62000996565b005b60006002600083815260200190815260200160002060000160009054906101000a900473ffffffffffffffffffffffffffffffffffffffff1690503373ffffffffffffffffffffffffffffffffffffffff168173ffffffffffffffffffffffffffffffffffffffff16146200022d576040517f08c379a000000000000000000000000000000000000000000000000000000000815260040162000224906200118d565b60405180910390fd5b348173ffffffffffffffffffffffffffffffffffffffff16633c8da5886040518163ffffffff1660e01b815260040160206040518083038186803b1580156200027557600080fd5b505afa1580156200028a573d6000803e3d6000fd5b505050506040513d601f19601f82011682018060405250810190620002b0919062000eff565b14620002f3576040517f08c379a0000000000000000000000000000000000000000000000000000000008152600401620002ea90620011af565b60405180910390fd5b600060028111156200032e577f4e487b7100000000000000000000000000000000000000000000000000000000600052602160045260246000fd5b6002600084815260200190815260200160002060000160149054906101000a900460ff1660028111156200038b577f4e487b7100000000000000000000000000000000000000000000000000000000600052602160045260246000fd5b14620003ce576040517f08c379a0000000000000000000000000000000000000000000000000000000008152600401620003c59062001149565b60405180910390fd5b60016002600084815260200190815260200160002060000160146101000a81548160ff021916908360028111156200042f577f4e487b7100000000000000000000000000000000000000000000000000000000600052602160045260246000fd5b02179055507fa4035636e99f06b7651a604c1019fa4e8779fe68ef27eeb74dff2de348f6199b826002600085815260200190815260200160002060000160149054906101000a900460ff166002811115620004b3577f4e487b7100000000000000000000000000000000000000000000000000000000600052602160045260246000fd5b83604051620004c59392919062001215565b60405180910390a15050565b60026020528060005260406000206000915090508060000160009054906101000a900473ffffffffffffffffffffffffffffffffffffffff16908060000160149054906101000a900460ff16908060010180546200052f90620013c9565b80601f01602080910402602001604051908101604052809291908181526020018280546200055d90620013c9565b8015620005ae5780601f106200058257610100808354040283529160200191620005ae565b820191906000526020600020905b8154815290600101906020018083116200059057829003601f168201915b5050505050905083565b60008054906101000a900473ffffffffffffffffffffffffffffffffffffffff1673ffffffffffffffffffffffffffffffffffffffff163373ffffffffffffffffffffffffffffffffffffffff161462000649576040517f08c379a00000000000000000000000000000000000000000000000000000000081526004016200064090620011f3565b60405180910390fd5b6001600281111562000684577f4e487b7100000000000000000000000000000000000000000000000000000000600052602160045260246000fd5b6002600083815260200190815260200160002060000160149054906101000a900460ff166002811115620006e1577f4e487b7100000000000000000000000000000000000000000000000000000000600052602160045260246000fd5b1462000724576040517f08c379a00000000000000000000000000000000000000000000000000000000081526004016200071b906200116b565b60405180910390fd5b600280600083815260200190815260200160002060000160146101000a81548160ff0219169083600281111562000784577f4e487b7100000000000000000000000000000000000000000000000000000000600052602160045260246000fd5b02179055507fa4035636e99f06b7651a604c1019fa4e8779fe68ef27eeb74dff2de348f6199b816002600084815260200190815260200160002060000160149054906101000a900460ff16600281111562000808577f4e487b7100000000000000000000000000000000000000000000000000000000600052602160045260246000fd5b6002600085815260200190815260200160002060000160009054906101000a900473ffffffffffffffffffffffffffffffffffffffff16604051620008509392919062001215565b60405180910390a150565b60008060009054906101000a900473ffffffffffffffffffffffffffffffffffffffff16905090565b60008054906101000a900473ffffffffffffffffffffffffffffffffffffffff1673ffffffffffffffffffffffffffffffffffffffff163373ffffffffffffffffffffffffffffffffffffffff161462000915576040517f08c379a00000000000000000000000000000000000000000000000000000000081526004016200090c90620011f3565b60405180910390fd5b600073ffffffffffffffffffffffffffffffffffffffff168173ffffffffffffffffffffffffffffffffffffffff16141562000988576040517f08c379a00000000000000000000000000000000000000000000000000000000081526004016200097f90620011d1565b60405180910390fd5b620009938162000c14565b50565b60008054906101000a900473ffffffffffffffffffffffffffffffffffffffff1673ffffffffffffffffffffffffffffffffffffffff163373ffffffffffffffffffffffffffffffffffffffff161462000a27576040517f08c379a000000000000000000000000000000000000000000000000000000000815260040162000a1e90620011f3565b60405180910390fd5b6000308260015460405162000a3c9062000cd8565b62000a4a93929190620010c8565b604051809103906000f08015801562000a67573d6000803e3d6000fd5b5090508060026000600154815260200190815260200160002060000160006101000a81548173ffffffffffffffffffffffffffffffffffffffff021916908373ffffffffffffffffffffffffffffffffffffffff160217905550600060026000600154815260200190815260200160002060000160146101000a81548160ff0219169083600281111562000b24577f4e487b7100000000000000000000000000000000000000000000000000000000600052602160045260246000fd5b021790555082600260006001548152602001908152602001600020600101908051906020019062000b5792919062000ce6565b507fa4035636e99f06b7651a604c1019fa4e8779fe68ef27eeb74dff2de348f6199b60015460026000600154815260200190815260200160002060000160149054906101000a900460ff16600281111562000bdb577f4e487b7100000000000000000000000000000000000000000000000000000000600052602160045260246000fd5b8360405162000bed9392919062001215565b60405180910390a16001600081548092919062000c0a9062001435565b9190505550505050565b60008060009054906101000a900473ffffffffffffffffffffffffffffffffffffffff169050816000806101000a81548173ffffffffffffffffffffffffffffffffffffffff021916908373ffffffffffffffffffffffffffffffffffffffff1602179055508173ffffffffffffffffffffffffffffffffffffffff168173ffffffffffffffffffffffffffffffffffffffff167f6d9c3c706645525f3571ff529a1893db9dfc4540071cf8c1e3087c7f14822bb460405160405180910390a35050565b610835806200170483390190565b82805462000cf490620013c9565b90600052602060002090601f01602090048101928262000d18576000855562000d64565b82601f1062000d3357805160ff191683800117855562000d64565b8280016001018555821562000d64579182015b8281111562000d6357825182559160200191906001019062000d46565b5b50905062000d73919062000d77565b5090565b5b8082111562000d9257600081600090555060010162000d78565b5090565b600062000dad62000da7846200127b565b62001252565b90508281526020810184848401111562000dc657600080fd5b62000dd384828562001384565b509392505050565b60008135905062000dec81620016cf565b92915050565b600082601f83011262000e0457600080fd5b813562000e1684826020860162000d96565b91505092915050565b60008135905062000e3081620016e9565b92915050565b60008151905062000e4781620016e9565b92915050565b60006020828403121562000e6057600080fd5b600062000e708482850162000ddb565b91505092915050565b6000806040838503121562000e8d57600080fd5b600083013567ffffffffffffffff81111562000ea857600080fd5b62000eb68582860162000df2565b925050602062000ec98582860162000e1f565b9150509250929050565b60006020828403121562000ee657600080fd5b600062000ef68482850162000e1f565b91505092915050565b60006020828403121562000f1257600080fd5b600062000f228482850162000e36565b91505092915050565b62000f3681620012cd565b82525050565b62000f478162001320565b82525050565b62000f588162001348565b82525050565b62000f698162001370565b82525050565b600062000f7c82620012b1565b62000f888185620012bc565b935062000f9a81856020860162001393565b62000fa5816200153f565b840191505092915050565b600062000fbf601483620012bc565b915062000fcc8262001550565b602082019050919050565b600062000fe6602183620012bc565b915062000ff38262001579565b604082019050919050565b60006200100d602c83620012bc565b91506200101a82620015c8565b604082019050919050565b600062001034600e83620012bc565b9150620010418262001617565b602082019050919050565b60006200105b602283620012bc565b9150620010688262001640565b604082019050919050565b600062001082601683620012bc565b91506200108f826200168f565b602082019050919050565b620010a58162001316565b82525050565b6000602082019050620010c2600083018462000f2b565b92915050565b6000606082019050620010df600083018662000f3c565b620010ee60208301856200109a565b620010fd60408301846200109a565b949350505050565b60006060820190506200111c600083018662000f4d565b6200112b602083018562000f5e565b81810360408301526200113f818462000f6f565b9050949350505050565b60006020820190508181036000830152620011648162000fb0565b9050919050565b60006020820190508181036000830152620011868162000fd7565b9050919050565b60006020820190508181036000830152620011a88162000ffe565b9050919050565b60006020820190508181036000830152620011ca8162001025565b9050919050565b60006020820190508181036000830152620011ec816200104c565b9050919050565b600060208201905081810360008301526200120e8162001073565b9050919050565b60006060820190506200122c60008301866200109a565b6200123b60208301856200109a565b6200124a604083018462000f2b565b949350505050565b60006200125e62001271565b90506200126c8282620013ff565b919050565b6000604051905090565b600067ffffffffffffffff82111562001299576200129862001510565b5b620012a4826200153f565b9050602081019050919050565b600081519050919050565b600082825260208201905092915050565b6000620012da82620012f6565b9050919050565b6000819050620012f182620016b8565b919050565b600073ffffffffffffffffffffffffffffffffffffffff82169050919050565b6000819050919050565b60006200132d8262001334565b9050919050565b60006200134182620012f6565b9050919050565b600062001355826200135c565b9050919050565b60006200136982620012f6565b9050919050565b60006200137d82620012e1565b9050919050565b82818337600083830152505050565b60005b83811015620013b357808201518184015260208101905062001396565b83811115620013c3576000848401525b50505050565b60006002820490506001821680620013e257607f821691505b60208210811415620013f957620013f8620014e1565b5b50919050565b6200140a826200153f565b810181811067ffffffffffffffff821117156200142c576200142b62001510565b5b80604052505050565b6000620014428262001316565b91507fffffffffffffffffffffffffffffffffffffffffffffffffffffffffffffffff82141562001478576200147762001483565b5b600182019050919050565b7f4e487b7100000000000000000000000000000000000000000000000000000000600052601160045260246000fd5b7f4e487b7100000000000000000000000000000000000000000000000000000000600052602160045260246000fd5b7f4e487b7100000000000000000000000000000000000000000000000000000000600052602260045260246000fd5b7f4e487b7100000000000000000000000000000000000000000000000000000000600052604160045260246000fd5b6000601f19601f8301169050919050565b7f697473206675727468657220746f20636861696e000000000000000000000000600082015250565b7f697473206675727468657220746f20636861696e206f72204e6f74205061696460008201527f2e00000000000000000000000000000000000000000000000000000000000000602082015250565b7f4f6e6c79206974656d732061726520616c6c6f77656420746f2075706461746560008201527f207468656d73656c7665732e0000000000000000000000000000000000000000602082015250565b7f4e6f742066756c6c792050616964000000000000000000000000000000000000600082015250565b7f546865206e6577206f776e657220697320746865207a65726f2061646472657360008201527f732e000000000000000000000000000000000000000000000000000000000000602082015250565b7f596f7520617265206e6f7420746865206f776e65722e00000000000000000000600082015250565b60038110620016cc57620016cb620014b2565b5b50565b620016da81620012cd565b8114620016e657600080fd5b50565b620016f48162001316565b81146200170057600080fd5b5056fe608060405234801561001057600080fd5b50604051610835380380610835833981810160405281019061003291906100b3565b816000819055508060018190555082600360006101000a81548173ffffffffffffffffffffffffffffffffffffffff021916908373ffffffffffffffffffffffffffffffffffffffff16021790555050505061017e565b60008151905061009881610150565b92915050565b6000815190506100ad81610167565b92915050565b6000806000606084860312156100c857600080fd5b60006100d686828701610089565b93505060206100e78682870161009e565b92505060406100f88682870161009e565b9150509250925092565b600061010d82610126565b9050919050565b600061011f82610102565b9050919050565b600073ffffffffffffffffffffffffffffffffffffffff82169050919050565b6000819050919050565b61015981610114565b811461016457600080fd5b50565b61017081610146565b811461017b57600080fd5b50565b6106a88061018d6000396000f3fe6080604052600436106100435760003560e01c80632986c0e51461025b5780633c8da5881461028657806383d12eef146102b1578063c20af43b146102dc5761024c565b3661024c57346000541461008c576040517f08c379a000000000000000000000000000000000000000000000000000000000815260040161008390610429565b60405180910390fd5b6000600254146100d1576040517f08c379a00000000000000000000000000000000000000000000000000000000081526004016100c890610449565b60405180910390fd5b34600260008282546100e391906104cb565b925050819055506000600360009054906101000a900473ffffffffffffffffffffffffffffffffffffffff1673ffffffffffffffffffffffffffffffffffffffff16346001546040516024016101399190610489565b6040516020818303038152906040527f800fb83f000000000000000000000000000000000000000000000000000000007bffffffffffffffffffffffffffffffffffffffffffffffffffffffff19166020820180517bffffffffffffffffffffffffffffffffffffffffffffffffffffffff83818316178352505050506040516101c391906103f7565b60006040518083038185875af1925050503d8060008114610200576040519150601f19603f3d011682016040523d82523d6000602084013e610205565b606091505b5050905080610249576040517f08c379a000000000000000000000000000000000000000000000000000000000815260040161024090610469565b60405180910390fd5b50005b34801561025857600080fd5b50005b34801561026757600080fd5b50610270610307565b60405161027d9190610489565b60405180910390f35b34801561029257600080fd5b5061029b61030d565b6040516102a89190610489565b60405180910390f35b3480156102bd57600080fd5b506102c6610313565b6040516102d39190610489565b60405180910390f35b3480156102e857600080fd5b506102f1610319565b6040516102fe919061040e565b60405180910390f35b60015481565b60005481565b60025481565b600360009054906101000a900473ffffffffffffffffffffffffffffffffffffffff1681565b600061034a826104a4565b61035481856104af565b935061036481856020860161056f565b80840191505092915050565b6103798161054b565b82525050565b600061038c6020836104ba565b9150610397826105d1565b602082019050919050565b60006103af6025836104ba565b91506103ba826105fa565b604082019050919050565b60006103d26016836104ba565b91506103dd82610649565b602082019050919050565b6103f181610541565b82525050565b6000610403828461033f565b915081905092915050565b60006020820190506104236000830184610370565b92915050565b600060208201905081810360008301526104428161037f565b9050919050565b60006020820190508181036000830152610462816103a2565b9050919050565b60006020820190508181036000830152610482816103c5565b9050919050565b600060208201905061049e60008301846103e8565b92915050565b600081519050919050565b600081905092915050565b600082825260208201905092915050565b60006104d682610541565b91506104e183610541565b9250827fffffffffffffffffffffffffffffffffffffffffffffffffffffffffffffffff03821115610516576105156105a2565b5b828201905092915050565b600073ffffffffffffffffffffffffffffffffffffffff82169050919050565b6000819050919050565b60006105568261055d565b9050919050565b600061056882610521565b9050919050565b60005b8381101561058d578082015181840152602081019050610572565b8381111561059c576000848401525b50505050565b7f4e487b7100000000000000000000000000000000000000000000000000000000600052601160045260246000fd5b7f574520646f6e7420616363657074207061747269616c207061796d656e74732e600082015250565b7f596f75206861766520616c7265616479207061696420666f722074686520707260008201527f6f64756374000000000000000000000000000000000000000000000000000000602082015250565b7f44656c697665727920646964206e6f7420776f726b2e0000000000000000000060008201525056fea2646970667358221220d05296722fc4d24b1e0d2a4001f74beec00189f048d4704940ebf8b3c4dbd7c764736f6c63430008040033a2646970667358221220e1b574bda4465dc38d407a415c3324bda3732ce8e3e6d602c33ca48c562a5b9264736f6c63430008040033",
  "immutableReferences": {},
  "source": "//SPDX-License-Identifier: MIT\r\n\r\npragma solidity ^0.8.4;\r\n\r\nimport \"./Item.sol\";\r\nimport \"./Owner.sol\";\r\n\r\ncontract ItemManager is Owner{\r\n    \r\n    enum SupplyChainSteps {Created , Paid , Delivered}\r\n    \r\n    struct S_Items {\r\n        Item _item;\r\n        SupplyChainSteps _step;\r\n        string _identifier;\r\n    }\r\n    \r\n    uint index;\r\n    \r\n    mapping(uint => S_Items) public items;\r\n    \r\n    event SupplyChainStep(uint _itemIndex, uint _step, address _address);\r\n    \r\n    function CreateItem(string memory _identifier, uint _priceInWei) public onlyOwner {\r\n        Item item = new Item(this, _priceInWei, index);\r\n        items[index]._item = item;\r\n        items[index]._step = SupplyChainSteps.Created;\r\n        items[index]._identifier = _identifier;\r\n        emit SupplyChainStep(index, uint(items[index]._step), address(item));\r\n        index++;\r\n    }\r\n    \r\n    function triggerPayment(uint _index) public payable  {\r\n        Item item = items[_index]._item;\r\n        require(address(item) == msg.sender, \"Only items are allowed to update themselves.\");\r\n        require(item.priceInWei() == msg.value,\"Not fully Paid\");\r\n        require(items[_index]._step == SupplyChainSteps.Created,\"its further to chain\");\r\n        items[_index]._step = SupplyChainSteps.Paid;\r\n        emit SupplyChainStep(_index, uint(items[_index]._step), address(item));\r\n        \r\n    }\r\n    \r\n    function triggerDelivery(uint _index) public onlyOwner {\r\n        require(items[_index]._step == SupplyChainSteps.Paid,\"its further to chain or Not Paid.\");\r\n        items[_index]._step = SupplyChainSteps.Delivered;\r\n        emit SupplyChainStep(_index, uint(items[_index]._step), address(items[_index]._item));\r\n    }\r\n}",
  "sourcePath": "C:\\Users\\Chris Lytrokapis\\Desktop\\Dev\\EventTriggers\\contracts\\ItemManager.sol",
  "compiler": {
    "name": "solc",
    "version": "0.8.4+commit.c7e474f2.Emscripten.clang"
  },
  "schemaVersion": "3.4.3",
  "updatedAt": "2021-08-18T22:13:38.505Z",
  "networkType": "ethereum",
  "devdoc": {
    "kind": "dev",
    "methods": {},
    "version": 1
  },
  "userdoc": {
    "kind": "user",
    "methods": {},
    "version": 1
  }
}