{
  "contractName": "Owner",
  "abi": [
    {
      "inputs": [],
      "stateMutability": "nonpayable",
      "type": "constructor"
    },
    {
      "anonymous": false,
      "inputs": [
        {
          "indexed": true,
          "internalType": "address",
          "name": "oldOwner",
          "type": "address"
        },
        {
          "indexed": true,
          "internalType": "address",
          "name": "newOwner",
          "type": "address"
        }
      ],
      "name": "transferDetails",
      "type": "event"
    },
    {
      "inputs": [],
      "name": "isowner",
      "outputs": [
        {
          "internalType": "address",
          "name": "",
          "type": "address"
        }
      ],
      "stateMutability": "view",
      "type": "function"
    },
    {
      "inputs": [
        {
          "internalType": "address",
          "name": "newOwner",
          "type": "address"
        }
      ],
      "name": "transferOwnership",
      "outputs": [],
      "stateMutability": "nonpayable",
      "type": "function"
    }
  ],
  "bytecode": "0x608060405234801561001057600080fd5b50336000806101000a81548173ffffffffffffffffffffffffffffffffffffffff021916908373ffffffffffffffffffffffffffffffffffffffff160217905550610462806100606000396000f3fe608060405234801561001057600080fd5b50600436106100365760003560e01c8063ead4d3db1461003b578063f2fde38b14610059575b600080fd5b610043610075565b60405161005091906102ff565b60405180910390f35b610073600480360381019061006e9190610281565b61009e565b005b60008060009054906101000a900473ffffffffffffffffffffffffffffffffffffffff16905090565b60008054906101000a900473ffffffffffffffffffffffffffffffffffffffff1673ffffffffffffffffffffffffffffffffffffffff163373ffffffffffffffffffffffffffffffffffffffff161461012c576040517f08c379a00000000000000000000000000000000000000000000000000000000081526004016101239061033a565b60405180910390fd5b600073ffffffffffffffffffffffffffffffffffffffff168173ffffffffffffffffffffffffffffffffffffffff16141561019c576040517f08c379a00000000000000000000000000000000000000000000000000000000081526004016101939061031a565b60405180910390fd5b6101a5816101a8565b50565b60008060009054906101000a900473ffffffffffffffffffffffffffffffffffffffff169050816000806101000a81548173ffffffffffffffffffffffffffffffffffffffff021916908373ffffffffffffffffffffffffffffffffffffffff1602179055508173ffffffffffffffffffffffffffffffffffffffff168173ffffffffffffffffffffffffffffffffffffffff167f6d9c3c706645525f3571ff529a1893db9dfc4540071cf8c1e3087c7f14822bb460405160405180910390a35050565b60008135905061027b81610415565b92915050565b60006020828403121561029357600080fd5b60006102a18482850161026c565b91505092915050565b6102b38161036b565b82525050565b60006102c660228361035a565b91506102d18261039d565b604082019050919050565b60006102e960168361035a565b91506102f4826103ec565b602082019050919050565b600060208201905061031460008301846102aa565b92915050565b60006020820190508181036000830152610333816102b9565b9050919050565b60006020820190508181036000830152610353816102dc565b9050919050565b600082825260208201905092915050565b60006103768261037d565b9050919050565b600073ffffffffffffffffffffffffffffffffffffffff82169050919050565b7f546865206e6577206f776e657220697320746865207a65726f2061646472657360008201527f732e000000000000000000000000000000000000000000000000000000000000602082015250565b7f596f7520617265206e6f7420746865206f776e65722e00000000000000000000600082015250565b61041e8161036b565b811461042957600080fd5b5056fea2646970667358221220aa051b1a044f25148842f473bf1d68ee1f8275b66f39032303c9f94832f443be64736f6c63430008040033",
  "immutableReferences": {},
  "source": "//SPDX-License-Identifier: MIT\r\n\r\npragma solidity ^0.8.4;\r\n\r\n\r\n\r\ncontract Owner {\r\n    \r\n    address owner;\r\n    \r\n    constructor() {\r\n        owner = msg.sender;\r\n        \r\n    }\r\n    \r\n    modifier onlyOwner {\r\n        require(msg.sender == owner,\"You are not the owner.\");\r\n        _;\r\n    }\r\n    \r\n    function isowner() public view returns(address){\r\n        return owner;\r\n    }\r\n    \r\n    // creating IsOwner with return bool for allownce contract require.\r\n    \r\n    function IsOwner() internal view returns(bool){\r\n        return isowner() == msg.sender;\r\n    }\r\n    \r\n    event transferDetails(address indexed oldOwner,address indexed newOwner);\r\n    \r\n    /*function deleteOwnership() public onlyOwner {\r\n        setOwner(address(0));\r\n    }*/\r\n    \r\n    function transferOwnership(address newOwner) public onlyOwner {\r\n        require(newOwner != address(0),\"The new owner is the zero address.\");\r\n        setOwner(newOwner);\r\n    }\r\n    \r\n    function setOwner(address newOwner) private {\r\n        address oldOwner = owner;\r\n        owner = newOwner;\r\n        emit transferDetails(oldOwner,newOwner);\r\n    }\r\n}",
  "sourcePath": "C:\\Users\\Chris Lytrokapis\\Desktop\\Dev\\EventTriggers\\contracts\\Owner.sol",
  "compiler": {
    "name": "solc",
    "version": "0.8.4+commit.c7e474f2.Emscripten.clang"
  },
  "schemaVersion": "3.4.3",
  "updatedAt": "2021-08-18T22:13:23.694Z",
  "devdoc": {
    "kind": "dev",
    "methods": {},
    "version": 1
  },
  "userdoc": {
    "kind": "user",
    "methods": {},
    "version": 1
  }
}